{
  "_format": "hh-sol-artifact-1",
  "contractName": "Badge",
  "sourceName": "contracts/Badge.sol",
  "abi": [
    {
      "inputs": [],
      "stateMutability": "nonpayable",
      "type": "constructor"
    },
    {
      "anonymous": false,
      "inputs": [
        {
          "indexed": true,
          "internalType": "address",
          "name": "owner",
          "type": "address"
        },
        {
          "indexed": true,
          "internalType": "address",
          "name": "approved",
          "type": "address"
        },
        {
          "indexed": true,
          "internalType": "uint256",
          "name": "tokenId",
          "type": "uint256"
        }
      ],
      "name": "Approval",
      "type": "event"
    },
    {
      "anonymous": false,
      "inputs": [
        {
          "indexed": true,
          "internalType": "address",
          "name": "owner",
          "type": "address"
        },
        {
          "indexed": true,
          "internalType": "address",
          "name": "operator",
          "type": "address"
        },
        {
          "indexed": false,
          "internalType": "bool",
          "name": "approved",
          "type": "bool"
        }
      ],
      "name": "ApprovalForAll",
      "type": "event"
    },
    {
      "anonymous": false,
      "inputs": [
        {
          "indexed": true,
          "internalType": "address",
          "name": "to",
          "type": "address"
        },
        {
          "indexed": true,
          "internalType": "uint256",
          "name": "tokenId",
          "type": "uint256"
        }
      ],
      "name": "Attest",
      "type": "event"
    },
    {
      "anonymous": false,
      "inputs": [
        {
          "indexed": true,
          "internalType": "address",
          "name": "to",
          "type": "address"
        },
        {
          "indexed": true,
          "internalType": "uint256",
          "name": "tokenId",
          "type": "uint256"
        }
      ],
      "name": "Revoke",
      "type": "event"
    },
    {
      "anonymous": false,
      "inputs": [
        {
          "indexed": true,
          "internalType": "address",
          "name": "from",
          "type": "address"
        },
        {
          "indexed": true,
          "internalType": "address",
          "name": "to",
          "type": "address"
        },
        {
          "indexed": true,
          "internalType": "uint256",
          "name": "tokenId",
          "type": "uint256"
        }
      ],
      "name": "Transfer",
      "type": "event"
    },
    {
      "inputs": [
        {
          "internalType": "address",
          "name": "to",
          "type": "address"
        },
        {
          "internalType": "uint256",
          "name": "tokenId",
          "type": "uint256"
        }
      ],
      "name": "approve",
      "outputs": [],
      "stateMutability": "nonpayable",
      "type": "function"
    },
    {
      "inputs": [
        {
          "internalType": "address",
          "name": "owner",
          "type": "address"
        }
      ],
      "name": "balanceOf",
      "outputs": [
        {
          "internalType": "uint256",
          "name": "",
          "type": "uint256"
        }
      ],
      "stateMutability": "view",
      "type": "function"
    },
    {
      "inputs": [
        {
          "internalType": "uint256",
          "name": "tokenId",
          "type": "uint256"
        }
      ],
      "name": "getApproved",
      "outputs": [
        {
          "internalType": "address",
          "name": "",
          "type": "address"
        }
      ],
      "stateMutability": "view",
      "type": "function"
    },
    {
      "inputs": [
        {
          "internalType": "address",
          "name": "owner",
          "type": "address"
        },
        {
          "internalType": "address",
          "name": "operator",
          "type": "address"
        }
      ],
      "name": "isApprovedForAll",
      "outputs": [
        {
          "internalType": "bool",
          "name": "",
          "type": "bool"
        }
      ],
      "stateMutability": "view",
      "type": "function"
    },
    {
      "inputs": [],
      "name": "name",
      "outputs": [
        {
          "internalType": "string",
          "name": "",
          "type": "string"
        }
      ],
      "stateMutability": "view",
      "type": "function"
    },
    {
      "inputs": [
        {
          "internalType": "uint256",
          "name": "tokenId",
          "type": "uint256"
        }
      ],
      "name": "ownerOf",
      "outputs": [
        {
          "internalType": "address",
          "name": "",
          "type": "address"
        }
      ],
      "stateMutability": "view",
      "type": "function"
    },
    {
      "inputs": [
        {
          "internalType": "address",
          "name": "to",
          "type": "address"
        },
        {
          "internalType": "string",
          "name": "uri",
          "type": "string"
        }
      ],
      "name": "safeMint",
      "outputs": [],
      "stateMutability": "payable",
      "type": "function"
    },
    {
      "inputs": [
        {
          "internalType": "address",
          "name": "from",
          "type": "address"
        },
        {
          "internalType": "address",
          "name": "to",
          "type": "address"
        },
        {
          "internalType": "uint256",
          "name": "tokenId",
          "type": "uint256"
        }
      ],
      "name": "safeTransferFrom",
      "outputs": [],
      "stateMutability": "nonpayable",
      "type": "function"
    },
    {
      "inputs": [
        {
          "internalType": "address",
          "name": "from",
          "type": "address"
        },
        {
          "internalType": "address",
          "name": "to",
          "type": "address"
        },
        {
          "internalType": "uint256",
          "name": "tokenId",
          "type": "uint256"
        },
        {
          "internalType": "bytes",
          "name": "data",
          "type": "bytes"
        }
      ],
      "name": "safeTransferFrom",
      "outputs": [],
      "stateMutability": "nonpayable",
      "type": "function"
    },
    {
      "inputs": [
        {
          "internalType": "address",
          "name": "operator",
          "type": "address"
        },
        {
          "internalType": "bool",
          "name": "approved",
          "type": "bool"
        }
      ],
      "name": "setApprovalForAll",
      "outputs": [],
      "stateMutability": "nonpayable",
      "type": "function"
    },
    {
      "inputs": [
        {
          "internalType": "bytes4",
          "name": "interfaceId",
          "type": "bytes4"
        }
      ],
      "name": "supportsInterface",
      "outputs": [
        {
          "internalType": "bool",
          "name": "",
          "type": "bool"
        }
      ],
      "stateMutability": "view",
      "type": "function"
    },
    {
      "inputs": [],
      "name": "symbol",
      "outputs": [
        {
          "internalType": "string",
          "name": "",
          "type": "string"
        }
      ],
      "stateMutability": "view",
      "type": "function"
    },
    {
      "inputs": [
        {
          "internalType": "uint256",
          "name": "tokenId",
          "type": "uint256"
        }
      ],
      "name": "tokenURI",
      "outputs": [
        {
          "internalType": "string",
          "name": "",
          "type": "string"
        }
      ],
      "stateMutability": "view",
      "type": "function"
    },
    {
      "inputs": [
        {
          "internalType": "address",
          "name": "from",
          "type": "address"
        },
        {
          "internalType": "address",
          "name": "to",
          "type": "address"
        },
        {
          "internalType": "uint256",
          "name": "tokenId",
          "type": "uint256"
        }
      ],
      "name": "transferFrom",
      "outputs": [],
      "stateMutability": "nonpayable",
      "type": "function"
    },
    {
      "stateMutability": "payable",
      "type": "receive"
    }
  ],
  "bytecode": "0x60806040523480156200001157600080fd5b506040518060400160405280600b81526020017f54616c656e7442616467650000000000000000000000000000000000000000008152506040518060400160405280600381526020017f544c420000000000000000000000000000000000000000000000000000000000815250816000908051906020019062000096929190620000f9565b508060019080519060200190620000af929190620000f9565b50505033600860006101000a81548173ffffffffffffffffffffffffffffffffffffffff021916908373ffffffffffffffffffffffffffffffffffffffff1602179055506200020e565b8280546200010790620001d8565b90600052602060002090601f0160209004810192826200012b576000855562000177565b82601f106200014657805160ff191683800117855562000177565b8280016001018555821562000177579182015b828111156200017657825182559160200191906001019062000159565b5b5090506200018691906200018a565b5090565b5b80821115620001a55760008160009055506001016200018b565b5090565b7f4e487b7100000000000000000000000000000000000000000000000000000000600052602260045260246000fd5b60006002820490506001821680620001f157607f821691505b60208210811415620002085762000207620001a9565b5b50919050565b612bf8806200021e6000396000f3fe6080604052600436106100e15760003560e01c806370a082311161007f578063b88d4fde11610059578063b88d4fde146102db578063c87b56dd14610304578063d204c45e14610341578063e985e9c51461035d576100e8565b806370a082311461024a57806395d89b4114610287578063a22cb465146102b2576100e8565b8063095ea7b3116100bb578063095ea7b31461019257806323b872dd146101bb57806342842e0e146101e45780636352211e1461020d576100e8565b806301ffc9a7146100ed57806306fdde031461012a578063081812fc14610155576100e8565b366100e857005b600080fd5b3480156100f957600080fd5b50610114600480360381019061010f9190611ca2565b61039a565b6040516101219190611cea565b60405180910390f35b34801561013657600080fd5b5061013f61047c565b60405161014c9190611d9e565b60405180910390f35b34801561016157600080fd5b5061017c60048036038101906101779190611df6565b61050e565b6040516101899190611e64565b60405180910390f35b34801561019e57600080fd5b506101b960048036038101906101b49190611eab565b610554565b005b3480156101c757600080fd5b506101e260048036038101906101dd9190611eeb565b61066c565b005b3480156101f057600080fd5b5061020b60048036038101906102069190611eeb565b6106cc565b005b34801561021957600080fd5b50610234600480360381019061022f9190611df6565b6106ec565b6040516102419190611e64565b60405180910390f35b34801561025657600080fd5b50610271600480360381019061026c9190611f3e565b610773565b60405161027e9190611f7a565b60405180910390f35b34801561029357600080fd5b5061029c61082b565b6040516102a99190611d9e565b60405180910390f35b3480156102be57600080fd5b506102d960048036038101906102d49190611fc1565b6108bd565b005b3480156102e757600080fd5b5061030260048036038101906102fd9190612136565b6108d3565b005b34801561031057600080fd5b5061032b60048036038101906103269190611df6565b610935565b6040516103389190611d9e565b60405180910390f35b61035b6004803603810190610356919061225a565b610947565b005b34801561036957600080fd5b50610384600480360381019061037f91906122b6565b6109e1565b6040516103919190611cea565b60405180910390f35b60007f80ac58cd000000000000000000000000000000000000000000000000000000007bffffffffffffffffffffffffffffffffffffffffffffffffffffffff1916827bffffffffffffffffffffffffffffffffffffffffffffffffffffffff1916148061046557507f5b5e139f000000000000000000000000000000000000000000000000000000007bffffffffffffffffffffffffffffffffffffffffffffffffffffffff1916827bffffffffffffffffffffffffffffffffffffffffffffffffffffffff1916145b80610475575061047482610a75565b5b9050919050565b60606000805461048b90612325565b80601f01602080910402602001604051908101604052809291908181526020018280546104b790612325565b80156105045780601f106104d957610100808354040283529160200191610504565b820191906000526020600020905b8154815290600101906020018083116104e757829003601f168201915b5050505050905090565b600061051982610adf565b6004600083815260200190815260200160002060009054906101000a900473ffffffffffffffffffffffffffffffffffffffff169050919050565b600061055f826106ec565b90508073ffffffffffffffffffffffffffffffffffffffff168373ffffffffffffffffffffffffffffffffffffffff1614156105d0576040517f08c379a00000000000000000000000000000000000000000000000000000000081526004016105c7906123c9565b60405180910390fd5b8073ffffffffffffffffffffffffffffffffffffffff166105ef610b2a565b73ffffffffffffffffffffffffffffffffffffffff16148061061e575061061d81610618610b2a565b6109e1565b5b61065d576040517f08c379a00000000000000000000000000000000000000000000000000000000081526004016106549061245b565b60405180910390fd5b6106678383610b32565b505050565b61067d610677610b2a565b82610beb565b6106bc576040517f08c379a00000000000000000000000000000000000000000000000000000000081526004016106b3906124ed565b60405180910390fd5b6106c7838383610c80565b505050565b6106e7838383604051806020016040528060008152506108d3565b505050565b6000806106f883610f7a565b9050600073ffffffffffffffffffffffffffffffffffffffff168173ffffffffffffffffffffffffffffffffffffffff16141561076a576040517f08c379a000000000000000000000000000000000000000000000000000000000815260040161076190612559565b60405180910390fd5b80915050919050565b60008073ffffffffffffffffffffffffffffffffffffffff168273ffffffffffffffffffffffffffffffffffffffff1614156107e4576040517f08c379a00000000000000000000000000000000000000000000000000000000081526004016107db906125eb565b60405180910390fd5b600360008373ffffffffffffffffffffffffffffffffffffffff1673ffffffffffffffffffffffffffffffffffffffff168152602001908152602001600020549050919050565b60606001805461083a90612325565b80601f016020809104026020016040519081016040528092919081815260200182805461086690612325565b80156108b35780601f10610888576101008083540402835291602001916108b3565b820191906000526020600020905b81548152906001019060200180831161089657829003601f168201915b5050505050905090565b6108cf6108c8610b2a565b8383610fb7565b5050565b6108e46108de610b2a565b83610beb565b610923576040517f08c379a000000000000000000000000000000000000000000000000000000000815260040161091a906124ed565b60405180910390fd5b61092f84848484611124565b50505050565b606061094082611180565b9050919050565b60006109536007611293565b905061095f60076112a1565b61096983826112b7565b61097381836112d5565b600860009054906101000a900473ffffffffffffffffffffffffffffffffffffffff1673ffffffffffffffffffffffffffffffffffffffff166108fc349081150290604051600060405180830381858888f193505050501580156109db573d6000803e3d6000fd5b50505050565b6000600560008473ffffffffffffffffffffffffffffffffffffffff1673ffffffffffffffffffffffffffffffffffffffff16815260200190815260200160002060008373ffffffffffffffffffffffffffffffffffffffff1673ffffffffffffffffffffffffffffffffffffffff16815260200190815260200160002060009054906101000a900460ff16905092915050565b60007f01ffc9a7000000000000000000000000000000000000000000000000000000007bffffffffffffffffffffffffffffffffffffffffffffffffffffffff1916827bffffffffffffffffffffffffffffffffffffffffffffffffffffffff1916149050919050565b610ae881611349565b610b27576040517f08c379a0000000000000000000000000000000000000000000000000000000008152600401610b1e90612559565b60405180910390fd5b50565b600033905090565b816004600083815260200190815260200160002060006101000a81548173ffffffffffffffffffffffffffffffffffffffff021916908373ffffffffffffffffffffffffffffffffffffffff160217905550808273ffffffffffffffffffffffffffffffffffffffff16610ba5836106ec565b73ffffffffffffffffffffffffffffffffffffffff167f8c5be1e5ebec7d5bd14f71427d1e84f3dd0314c0f7b2291e5b200ac8c7c3b92560405160405180910390a45050565b600080610bf7836106ec565b90508073ffffffffffffffffffffffffffffffffffffffff168473ffffffffffffffffffffffffffffffffffffffff161480610c395750610c3881856109e1565b5b80610c7757508373ffffffffffffffffffffffffffffffffffffffff16610c5f8461050e565b73ffffffffffffffffffffffffffffffffffffffff16145b91505092915050565b8273ffffffffffffffffffffffffffffffffffffffff16610ca0826106ec565b73ffffffffffffffffffffffffffffffffffffffff1614610cf6576040517f08c379a0000000000000000000000000000000000000000000000000000000008152600401610ced9061267d565b60405180910390fd5b600073ffffffffffffffffffffffffffffffffffffffff168273ffffffffffffffffffffffffffffffffffffffff161415610d66576040517f08c379a0000000000000000000000000000000000000000000000000000000008152600401610d5d9061270f565b60405180910390fd5b610d73838383600161138a565b8273ffffffffffffffffffffffffffffffffffffffff16610d93826106ec565b73ffffffffffffffffffffffffffffffffffffffff1614610de9576040517f08c379a0000000000000000000000000000000000000000000000000000000008152600401610de09061267d565b60405180910390fd5b6004600082815260200190815260200160002060006101000a81549073ffffffffffffffffffffffffffffffffffffffff02191690556001600360008573ffffffffffffffffffffffffffffffffffffffff1673ffffffffffffffffffffffffffffffffffffffff168152602001908152602001600020600082825403925050819055506001600360008473ffffffffffffffffffffffffffffffffffffffff1673ffffffffffffffffffffffffffffffffffffffff16815260200190815260200160002060008282540192505081905550816002600083815260200190815260200160002060006101000a81548173ffffffffffffffffffffffffffffffffffffffff021916908373ffffffffffffffffffffffffffffffffffffffff160217905550808273ffffffffffffffffffffffffffffffffffffffff168473ffffffffffffffffffffffffffffffffffffffff167fddf252ad1be2c89b69c2b068fc378daa952ba7f163c4a11628f55a4df523b3ef60405160405180910390a4610f7583838360016114b0565b505050565b60006002600083815260200190815260200160002060009054906101000a900473ffffffffffffffffffffffffffffffffffffffff169050919050565b8173ffffffffffffffffffffffffffffffffffffffff168373ffffffffffffffffffffffffffffffffffffffff161415611026576040517f08c379a000000000000000000000000000000000000000000000000000000000815260040161101d9061277b565b60405180910390fd5b80600560008573ffffffffffffffffffffffffffffffffffffffff1673ffffffffffffffffffffffffffffffffffffffff16815260200190815260200160002060008473ffffffffffffffffffffffffffffffffffffffff1673ffffffffffffffffffffffffffffffffffffffff16815260200190815260200160002060006101000a81548160ff0219169083151502179055508173ffffffffffffffffffffffffffffffffffffffff168373ffffffffffffffffffffffffffffffffffffffff167f17307eab39ab6107e8899845ad3d59bd9653f200f220920489ca2b5937696c31836040516111179190611cea565b60405180910390a3505050565b61112f848484610c80565b61113b848484846114b6565b61117a576040517f08c379a00000000000000000000000000000000000000000000000000000000081526004016111719061280d565b60405180910390fd5b50505050565b606061118b82610adf565b60006006600084815260200190815260200160002080546111ab90612325565b80601f01602080910402602001604051908101604052809291908181526020018280546111d790612325565b80156112245780601f106111f957610100808354040283529160200191611224565b820191906000526020600020905b81548152906001019060200180831161120757829003601f168201915b50505050509050600061123561164d565b905060008151141561124b57819250505061128e565b600082511115611280578082604051602001611268929190612869565b6040516020818303038152906040529250505061128e565b61128984611664565b925050505b919050565b600081600001549050919050565b6001816000016000828254019250508190555050565b6112d18282604051806020016040528060008152506116cc565b5050565b6112de82611349565b61131d576040517f08c379a0000000000000000000000000000000000000000000000000000000008152600401611314906128ff565b60405180910390fd5b80600660008481526020019081526020016000209080519060200190611344929190611b93565b505050565b60008073ffffffffffffffffffffffffffffffffffffffff1661136b83610f7a565b73ffffffffffffffffffffffffffffffffffffffff1614159050919050565b60018111156114aa57600073ffffffffffffffffffffffffffffffffffffffff168473ffffffffffffffffffffffffffffffffffffffff161461141e5780600360008673ffffffffffffffffffffffffffffffffffffffff1673ffffffffffffffffffffffffffffffffffffffff1681526020019081526020016000206000828254611416919061294e565b925050819055505b600073ffffffffffffffffffffffffffffffffffffffff168373ffffffffffffffffffffffffffffffffffffffff16146114a95780600360008573ffffffffffffffffffffffffffffffffffffffff1673ffffffffffffffffffffffffffffffffffffffff16815260200190815260200160002060008282546114a19190612982565b925050819055505b5b50505050565b50505050565b60006114d78473ffffffffffffffffffffffffffffffffffffffff16611727565b15611640578373ffffffffffffffffffffffffffffffffffffffff1663150b7a02611500610b2a565b8786866040518563ffffffff1660e01b81526004016115229493929190612a2d565b602060405180830381600087803b15801561153c57600080fd5b505af192505050801561156d57506040513d601f19601f8201168201806040525081019061156a9190612a8e565b60015b6115f0573d806000811461159d576040519150601f19603f3d011682016040523d82523d6000602084013e6115a2565b606091505b506000815114156115e8576040517f08c379a00000000000000000000000000000000000000000000000000000000081526004016115df9061280d565b60405180910390fd5b805181602001fd5b63150b7a0260e01b7bffffffffffffffffffffffffffffffffffffffffffffffffffffffff1916817bffffffffffffffffffffffffffffffffffffffffffffffffffffffff191614915050611645565b600190505b949350505050565b606060405180602001604052806000815250905090565b606061166f82610adf565b600061167961164d565b9050600081511161169957604051806020016040528060008152506116c4565b806116a38461174a565b6040516020016116b4929190612869565b6040516020818303038152906040525b915050919050565b6116d68383611822565b6116e360008484846114b6565b611722576040517f08c379a00000000000000000000000000000000000000000000000000000000081526004016117199061280d565b60405180910390fd5b505050565b6000808273ffffffffffffffffffffffffffffffffffffffff163b119050919050565b60606000600161175984611a40565b01905060008167ffffffffffffffff8111156117785761177761200b565b5b6040519080825280601f01601f1916602001820160405280156117aa5781602001600182028036833780820191505090505b509050600082602001820190505b600115611817578080600190039150507f3031323334353637383961626364656600000000000000000000000000000000600a86061a8153600a858161180157611800612abb565b5b049450600085141561181257611817565b6117b8565b819350505050919050565b600073ffffffffffffffffffffffffffffffffffffffff168273ffffffffffffffffffffffffffffffffffffffff161415611892576040517f08c379a000000000000000000000000000000000000000000000000000000000815260040161188990612b36565b60405180910390fd5b61189b81611349565b156118db576040517f08c379a00000000000000000000000000000000000000000000000000000000081526004016118d290612ba2565b60405180910390fd5b6118e960008383600161138a565b6118f281611349565b15611932576040517f08c379a000000000000000000000000000000000000000000000000000000000815260040161192990612ba2565b60405180910390fd5b6001600360008473ffffffffffffffffffffffffffffffffffffffff1673ffffffffffffffffffffffffffffffffffffffff16815260200190815260200160002060008282540192505081905550816002600083815260200190815260200160002060006101000a81548173ffffffffffffffffffffffffffffffffffffffff021916908373ffffffffffffffffffffffffffffffffffffffff160217905550808273ffffffffffffffffffffffffffffffffffffffff16600073ffffffffffffffffffffffffffffffffffffffff167fddf252ad1be2c89b69c2b068fc378daa952ba7f163c4a11628f55a4df523b3ef60405160405180910390a4611a3c6000838360016114b0565b5050565b600080600090507a184f03e93ff9f4daa797ed6e38ed64bf6a1f0100000000000000008310611a9e577a184f03e93ff9f4daa797ed6e38ed64bf6a1f0100000000000000008381611a9457611a93612abb565b5b0492506040810190505b6d04ee2d6d415b85acef81000000008310611adb576d04ee2d6d415b85acef81000000008381611ad157611ad0612abb565b5b0492506020810190505b662386f26fc100008310611b0a57662386f26fc100008381611b0057611aff612abb565b5b0492506010810190505b6305f5e1008310611b33576305f5e1008381611b2957611b28612abb565b5b0492506008810190505b6127108310611b58576127108381611b4e57611b4d612abb565b5b0492506004810190505b60648310611b7b5760648381611b7157611b70612abb565b5b0492506002810190505b600a8310611b8a576001810190505b80915050919050565b828054611b9f90612325565b90600052602060002090601f016020900481019282611bc15760008555611c08565b82601f10611bda57805160ff1916838001178555611c08565b82800160010185558215611c08579182015b82811115611c07578251825591602001919060010190611bec565b5b509050611c159190611c19565b5090565b5b80821115611c32576000816000905550600101611c1a565b5090565b6000604051905090565b600080fd5b600080fd5b60007fffffffff0000000000000000000000000000000000000000000000000000000082169050919050565b611c7f81611c4a565b8114611c8a57600080fd5b50565b600081359050611c9c81611c76565b92915050565b600060208284031215611cb857611cb7611c40565b5b6000611cc684828501611c8d565b91505092915050565b60008115159050919050565b611ce481611ccf565b82525050565b6000602082019050611cff6000830184611cdb565b92915050565b600081519050919050565b600082825260208201905092915050565b60005b83811015611d3f578082015181840152602081019050611d24565b83811115611d4e576000848401525b50505050565b6000601f19601f8301169050919050565b6000611d7082611d05565b611d7a8185611d10565b9350611d8a818560208601611d21565b611d9381611d54565b840191505092915050565b60006020820190508181036000830152611db88184611d65565b905092915050565b6000819050919050565b611dd381611dc0565b8114611dde57600080fd5b50565b600081359050611df081611dca565b92915050565b600060208284031215611e0c57611e0b611c40565b5b6000611e1a84828501611de1565b91505092915050565b600073ffffffffffffffffffffffffffffffffffffffff82169050919050565b6000611e4e82611e23565b9050919050565b611e5e81611e43565b82525050565b6000602082019050611e796000830184611e55565b92915050565b611e8881611e43565b8114611e9357600080fd5b50565b600081359050611ea581611e7f565b92915050565b60008060408385031215611ec257611ec1611c40565b5b6000611ed085828601611e96565b9250506020611ee185828601611de1565b9150509250929050565b600080600060608486031215611f0457611f03611c40565b5b6000611f1286828701611e96565b9350506020611f2386828701611e96565b9250506040611f3486828701611de1565b9150509250925092565b600060208284031215611f5457611f53611c40565b5b6000611f6284828501611e96565b91505092915050565b611f7481611dc0565b82525050565b6000602082019050611f8f6000830184611f6b565b92915050565b611f9e81611ccf565b8114611fa957600080fd5b50565b600081359050611fbb81611f95565b92915050565b60008060408385031215611fd857611fd7611c40565b5b6000611fe685828601611e96565b9250506020611ff785828601611fac565b9150509250929050565b600080fd5b600080fd5b7f4e487b7100000000000000000000000000000000000000000000000000000000600052604160045260246000fd5b61204382611d54565b810181811067ffffffffffffffff821117156120625761206161200b565b5b80604052505050565b6000612075611c36565b9050612081828261203a565b919050565b600067ffffffffffffffff8211156120a1576120a061200b565b5b6120aa82611d54565b9050602081019050919050565b82818337600083830152505050565b60006120d96120d484612086565b61206b565b9050828152602081018484840111156120f5576120f4612006565b5b6121008482856120b7565b509392505050565b600082601f83011261211d5761211c612001565b5b813561212d8482602086016120c6565b91505092915050565b600080600080608085870312156121505761214f611c40565b5b600061215e87828801611e96565b945050602061216f87828801611e96565b935050604061218087828801611de1565b925050606085013567ffffffffffffffff8111156121a1576121a0611c45565b5b6121ad87828801612108565b91505092959194509250565b600067ffffffffffffffff8211156121d4576121d361200b565b5b6121dd82611d54565b9050602081019050919050565b60006121fd6121f8846121b9565b61206b565b90508281526020810184848401111561221957612218612006565b5b6122248482856120b7565b509392505050565b600082601f83011261224157612240612001565b5b81356122518482602086016121ea565b91505092915050565b6000806040838503121561227157612270611c40565b5b600061227f85828601611e96565b925050602083013567ffffffffffffffff8111156122a05761229f611c45565b5b6122ac8582860161222c565b9150509250929050565b600080604083850312156122cd576122cc611c40565b5b60006122db85828601611e96565b92505060206122ec85828601611e96565b9150509250929050565b7f4e487b7100000000000000000000000000000000000000000000000000000000600052602260045260246000fd5b6000600282049050600182168061233d57607f821691505b60208210811415612351576123506122f6565b5b50919050565b7f4552433732313a20617070726f76616c20746f2063757272656e74206f776e6560008201527f7200000000000000000000000000000000000000000000000000000000000000602082015250565b60006123b3602183611d10565b91506123be82612357565b604082019050919050565b600060208201905081810360008301526123e2816123a6565b9050919050565b7f4552433732313a20617070726f76652063616c6c6572206973206e6f7420746f60008201527f6b656e206f776e6572206f7220617070726f76656420666f7220616c6c000000602082015250565b6000612445603d83611d10565b9150612450826123e9565b604082019050919050565b6000602082019050818103600083015261247481612438565b9050919050565b7f4552433732313a2063616c6c6572206973206e6f7420746f6b656e206f776e6560008201527f72206f7220617070726f76656400000000000000000000000000000000000000602082015250565b60006124d7602d83611d10565b91506124e28261247b565b604082019050919050565b60006020820190508181036000830152612506816124ca565b9050919050565b7f4552433732313a20696e76616c696420746f6b656e2049440000000000000000600082015250565b6000612543601883611d10565b915061254e8261250d565b602082019050919050565b6000602082019050818103600083015261257281612536565b9050919050565b7f4552433732313a2061646472657373207a65726f206973206e6f74206120766160008201527f6c6964206f776e65720000000000000000000000000000000000000000000000602082015250565b60006125d5602983611d10565b91506125e082612579565b604082019050919050565b60006020820190508181036000830152612604816125c8565b9050919050565b7f4552433732313a207472616e736665722066726f6d20696e636f72726563742060008201527f6f776e6572000000000000000000000000000000000000000000000000000000602082015250565b6000612667602583611d10565b91506126728261260b565b604082019050919050565b600060208201905081810360008301526126968161265a565b9050919050565b7f4552433732313a207472616e7366657220746f20746865207a65726f2061646460008201527f7265737300000000000000000000000000000000000000000000000000000000602082015250565b60006126f9602483611d10565b91506127048261269d565b604082019050919050565b60006020820190508181036000830152612728816126ec565b9050919050565b7f4552433732313a20617070726f766520746f2063616c6c657200000000000000600082015250565b6000612765601983611d10565b91506127708261272f565b602082019050919050565b6000602082019050818103600083015261279481612758565b9050919050565b7f4552433732313a207472616e7366657220746f206e6f6e20455243373231526560008201527f63656976657220696d706c656d656e7465720000000000000000000000000000602082015250565b60006127f7603283611d10565b91506128028261279b565b604082019050919050565b60006020820190508181036000830152612826816127ea565b9050919050565b600081905092915050565b600061284382611d05565b61284d818561282d565b935061285d818560208601611d21565b80840191505092915050565b60006128758285612838565b91506128818284612838565b91508190509392505050565b7f45524337323155524953746f726167653a2055524920736574206f66206e6f6e60008201527f6578697374656e7420746f6b656e000000000000000000000000000000000000602082015250565b60006128e9602e83611d10565b91506128f48261288d565b604082019050919050565b60006020820190508181036000830152612918816128dc565b9050919050565b7f4e487b7100000000000000000000000000000000000000000000000000000000600052601160045260246000fd5b600061295982611dc0565b915061296483611dc0565b9250828210156129775761297661291f565b5b828203905092915050565b600061298d82611dc0565b915061299883611dc0565b9250827fffffffffffffffffffffffffffffffffffffffffffffffffffffffffffffffff038211156129cd576129cc61291f565b5b828201905092915050565b600081519050919050565b600082825260208201905092915050565b60006129ff826129d8565b612a0981856129e3565b9350612a19818560208601611d21565b612a2281611d54565b840191505092915050565b6000608082019050612a426000830187611e55565b612a4f6020830186611e55565b612a5c6040830185611f6b565b8181036060830152612a6e81846129f4565b905095945050505050565b600081519050612a8881611c76565b92915050565b600060208284031215612aa457612aa3611c40565b5b6000612ab284828501612a79565b91505092915050565b7f4e487b7100000000000000000000000000000000000000000000000000000000600052601260045260246000fd5b7f4552433732313a206d696e7420746f20746865207a65726f2061646472657373600082015250565b6000612b20602083611d10565b9150612b2b82612aea565b602082019050919050565b60006020820190508181036000830152612b4f81612b13565b9050919050565b7f4552433732313a20746f6b656e20616c7265616479206d696e74656400000000600082015250565b6000612b8c601c83611d10565b9150612b9782612b56565b602082019050919050565b60006020820190508181036000830152612bbb81612b7f565b905091905056fea2646970667358221220a767e7405795e68994dd610962fb8d1a2cc0e8a6b20900e32aacaaf55435fc7e64736f6c63430008090033",
  "linkReferences": {},
  "deployedLinkReferences": {}
}