{
  "_format": "hh-sol-artifact-1",
  "contractName": "Controller",
  "sourceName": "contracts/Controller.sol",
  "abi": [
    {
      "inputs": [
        {
          "internalType": "contract ERC721",
          "name": "_badge",
          "type": "address"
        },
        {
          "internalType": "address",
          "name": "_executor",
          "type": "address"
        }
      ],
      "stateMutability": "nonpayable",
      "type": "constructor"
    },
    {
      "inputs": [
        {
          "internalType": "address",
          "name": "_proposer",
          "type": "address"
        }
      ],
      "name": "canPropose",
      "outputs": [
        {
          "internalType": "bool",
          "name": "",
          "type": "bool"
        }
      ],
      "stateMutability": "view",
      "type": "function"
    },
    {
      "inputs": [
        {
          "internalType": "address",
          "name": "_voter",
          "type": "address"
        }
      ],
      "name": "canVote",
      "outputs": [
        {
          "internalType": "bool",
          "name": "",
          "type": "bool"
        }
      ],
      "stateMutability": "view",
      "type": "function"
    }
  ],
  "bytecode": "0x608060405234801561001057600080fd5b506040516105583803806105588339818101604052810190610032919061015b565b816000806101000a81548173ffffffffffffffffffffffffffffffffffffffff021916908373ffffffffffffffffffffffffffffffffffffffff16021790555080600160006101000a81548173ffffffffffffffffffffffffffffffffffffffff021916908373ffffffffffffffffffffffffffffffffffffffff160217905550505061019b565b600080fd5b600073ffffffffffffffffffffffffffffffffffffffff82169050919050565b60006100ea826100bf565b9050919050565b60006100fc826100df565b9050919050565b61010c816100f1565b811461011757600080fd5b50565b60008151905061012981610103565b92915050565b610138816100df565b811461014357600080fd5b50565b6000815190506101558161012f565b92915050565b60008060408385031215610172576101716100ba565b5b60006101808582860161011a565b925050602061019185828601610146565b9150509250929050565b6103ae806101aa6000396000f3fe608060405234801561001057600080fd5b50600436106100365760003560e01c806342b4632e1461003b578063adfaa72e1461006b575b600080fd5b61005560048036038101906100509190610288565b61009b565b60405161006291906102d0565b60405180910390f35b61008560048036038101906100809190610288565b610160565b60405161009291906102d0565b60405180910390f35b60008060008054906101000a900473ffffffffffffffffffffffffffffffffffffffff1673ffffffffffffffffffffffffffffffffffffffff166370a08231846040518263ffffffff1660e01b81526004016100f791906102fa565b60206040518083038186803b15801561010f57600080fd5b505afa158015610123573d6000803e3d6000fd5b505050506040513d601f19601f82011682018060405250810190610147919061034b565b1115610156576001905061015b565b600090505b919050565b60008060008054906101000a900473ffffffffffffffffffffffffffffffffffffffff1673ffffffffffffffffffffffffffffffffffffffff166370a08231846040518263ffffffff1660e01b81526004016101bc91906102fa565b60206040518083038186803b1580156101d457600080fd5b505afa1580156101e8573d6000803e3d6000fd5b505050506040513d601f19601f8201168201806040525081019061020c919061034b565b111561021b5760019050610220565b600090505b919050565b600080fd5b600073ffffffffffffffffffffffffffffffffffffffff82169050919050565b60006102558261022a565b9050919050565b6102658161024a565b811461027057600080fd5b50565b6000813590506102828161025c565b92915050565b60006020828403121561029e5761029d610225565b5b60006102ac84828501610273565b91505092915050565b60008115159050919050565b6102ca816102b5565b82525050565b60006020820190506102e560008301846102c1565b92915050565b6102f48161024a565b82525050565b600060208201905061030f60008301846102eb565b92915050565b6000819050919050565b61032881610315565b811461033357600080fd5b50565b6000815190506103458161031f565b92915050565b60006020828403121561036157610360610225565b5b600061036f84828501610336565b9150509291505056fea26469706673582212208c315052f404a477500bd655ba3b3edc30e53db46c6f79f6c2fea505dc43596364736f6c63430008090033",
  "linkReferences": {},
  "deployedLinkReferences": {}
}