{
  "_format": "hh-sol-artifact-1",
  "contractName": "LangDAO",
  "sourceName": "contracts/LangDAO.sol",
  "abi": [
    {
      "inputs": [
        {
          "internalType": "contract Badge",
          "name": "_badge",
          "type": "address"
        }
      ],
      "stateMutability": "nonpayable",
      "type": "constructor"
    },
    {
      "inputs": [
        {
          "internalType": "address",
          "name": "_proposer",
          "type": "address"
        }
      ],
      "name": "canPropose",
      "outputs": [
        {
          "internalType": "bool",
          "name": "",
          "type": "bool"
        }
      ],
      "stateMutability": "view",
      "type": "function"
    },
    {
      "inputs": [
        {
          "internalType": "address",
          "name": "_voter",
          "type": "address"
        }
      ],
      "name": "canVote",
      "outputs": [
        {
          "internalType": "bool",
          "name": "",
          "type": "bool"
        }
      ],
      "stateMutability": "view",
      "type": "function"
    },
    {
      "inputs": [
        {
          "internalType": "address",
          "name": "_proposer",
          "type": "address"
        },
        {
          "internalType": "string",
          "name": "_name",
          "type": "string"
        },
        {
          "internalType": "string",
          "name": "_description",
          "type": "string"
        },
        {
          "internalType": "string",
          "name": "_lang",
          "type": "string"
        }
      ],
      "name": "createProposal",
      "outputs": [],
      "stateMutability": "nonpayable",
      "type": "function"
    },
    {
      "inputs": [
        {
          "internalType": "uint256",
          "name": "_forId",
          "type": "uint256"
        }
      ],
      "name": "isAlreadyVoted",
      "outputs": [
        {
          "internalType": "bool",
          "name": "",
          "type": "bool"
        }
      ],
      "stateMutability": "view",
      "type": "function"
    },
    {
      "inputs": [
        {
          "internalType": "uint256",
          "name": "_proposalId",
          "type": "uint256"
        }
      ],
      "name": "markComplete",
      "outputs": [],
      "stateMutability": "nonpayable",
      "type": "function"
    },
    {
      "inputs": [
        {
          "internalType": "enum LangDAO.VoteType",
          "name": "_vote",
          "type": "uint8"
        },
        {
          "internalType": "uint256",
          "name": "_forId",
          "type": "uint256"
        }
      ],
      "name": "voteProposal",
      "outputs": [],
      "stateMutability": "nonpayable",
      "type": "function"
    }
  ],
  "bytecode": "0x60806040523480156200001157600080fd5b506040516200130e3803806200130e8339818101604052810190620000379190620001c3565b8033816000806101000a81548173ffffffffffffffffffffffffffffffffffffffff021916908373ffffffffffffffffffffffffffffffffffffffff16021790555080600160006101000a81548173ffffffffffffffffffffffffffffffffffffffff021916908373ffffffffffffffffffffffffffffffffffffffff160217905550505080600260006101000a81548173ffffffffffffffffffffffffffffffffffffffff021916908373ffffffffffffffffffffffffffffffffffffffff16021790555033600460006101000a81548173ffffffffffffffffffffffffffffffffffffffff021916908373ffffffffffffffffffffffffffffffffffffffff16021790555050620001f5565b600080fd5b600073ffffffffffffffffffffffffffffffffffffffff82169050919050565b600062000177826200014a565b9050919050565b60006200018b826200016a565b9050919050565b6200019d816200017e565b8114620001a957600080fd5b50565b600081519050620001bd8162000192565b92915050565b600060208284031215620001dc57620001db62000145565b5b6000620001ec84828501620001ac565b91505092915050565b61110980620002056000396000f3fe608060405234801561001057600080fd5b50600436106100625760003560e01c806324c819ef1461006757806342b4632e1461009757806367067ed6146100c75780639dae1e77146100e3578063adfaa72e146100ff578063c43f33cb1461012f575b600080fd5b610081600480360381019061007c9190610959565b61014b565b60405161008e91906109a1565b60405180910390f35b6100b160048036038101906100ac9190610a1a565b61022e565b6040516100be91906109a1565b60405180910390f35b6100e160048036038101906100dc9190610959565b6102f3565b005b6100fd60048036038101906100f89190610b8d565b610389565b005b61011960048036038101906101149190610a1a565b610555565b60405161012691906109a1565b60405180910390f35b61014960048036038101906101449190610c6d565b61061a565b005b6000806000905060005b600660003373ffffffffffffffffffffffffffffffffffffffff1673ffffffffffffffffffffffffffffffffffffffff168152602001908152602001600020600001805490508110156102245783600660003373ffffffffffffffffffffffffffffffffffffffff1673ffffffffffffffffffffffffffffffffffffffff16815260200190815260200160002060000182815481106101f7576101f6610cad565b5b906000526020600020015414156102115760019150610224565b808061021c90610d0b565b915050610155565b5080915050919050565b60008060008054906101000a900473ffffffffffffffffffffffffffffffffffffffff1673ffffffffffffffffffffffffffffffffffffffff166370a08231846040518263ffffffff1660e01b815260040161028a9190610d63565b60206040518083038186803b1580156102a257600080fd5b505afa1580156102b6573d6000803e3d6000fd5b505050506040513d601f19601f820116820180604052508101906102da9190610d93565b11156102e957600190506102ee565b600090505b919050565b6005600082815260200190815260200160002060070160009054906101000a900460ff1615610357576040517f08c379a000000000000000000000000000000000000000000000000000000000815260040161034e90610e1d565b60405180910390fd5b60016005600083815260200190815260200160002060070160006101000a81548160ff02191690831515021790555050565b600115156103963361022e565b1515146103d8576040517f08c379a00000000000000000000000000000000000000000000000000000000081526004016103cf90610e89565b60405180910390fd5b6001600360008282546103eb9190610ea9565b9250508190555060405180610120016040528060035481526020016000815260200160008152602001600081526020018481526020018381526020018281526020016000151581526020018573ffffffffffffffffffffffffffffffffffffffff168152506005600060035481526020019081526020016000206000820151816000015560208201518160010155604082015181600201556060820151816003015560808201518160040190805190602001906104a992919061086c565b5060a08201518160050190805190602001906104c692919061086c565b5060c08201518160060190805190602001906104e392919061086c565b5060e08201518160070160006101000a81548160ff0219169083151502179055506101008201518160070160016101000a81548173ffffffffffffffffffffffffffffffffffffffff021916908373ffffffffffffffffffffffffffffffffffffffff16021790555090505050505050565b60008060008054906101000a900473ffffffffffffffffffffffffffffffffffffffff1673ffffffffffffffffffffffffffffffffffffffff166370a08231846040518263ffffffff1660e01b81526004016105b19190610d63565b60206040518083038186803b1580156105c957600080fd5b505afa1580156105dd573d6000803e3d6000fd5b505050506040513d601f19601f820116820180604052508101906106019190610d93565b11156106105760019050610615565b600090505b919050565b61062333610555565b610662576040517f08c379a000000000000000000000000000000000000000000000000000000000815260040161065990610f4b565b60405180910390fd5b6005600082815260200190815260200160002060070160009054906101000a900460ff16156106c6576040517f08c379a00000000000000000000000000000000000000000000000000000000081526004016106bd90610fb7565b60405180910390fd5b6106cf8161014b565b1561070f576040517f08c379a000000000000000000000000000000000000000000000000000000000815260040161070690611023565b60405180910390fd5b600660003373ffffffffffffffffffffffffffffffffffffffff1673ffffffffffffffffffffffffffffffffffffffff1681526020019081526020016000206000018190806001815401808255809150506001900390600052602060002001600090919091909150556000600281111561078c5761078b611043565b5b82600281111561079f5761079e611043565b5b14156107d85760016005600083815260200190815260200160002060010160008282546107cc9190610ea9565b92505081905550610868565b600160028111156107ec576107eb611043565b5b8260028111156107ff576107fe611043565b5b141561083857600160056000838152602001908152602001600020600201600082825461082c9190610ea9565b92505081905550610867565b600160056000838152602001908152602001600020600301600082825461085f9190610ea9565b925050819055505b5b5050565b828054610878906110a1565b90600052602060002090601f01602090048101928261089a57600085556108e1565b82601f106108b357805160ff19168380011785556108e1565b828001600101855582156108e1579182015b828111156108e05782518255916020019190600101906108c5565b5b5090506108ee91906108f2565b5090565b5b8082111561090b5760008160009055506001016108f3565b5090565b6000604051905090565b600080fd5b600080fd5b6000819050919050565b61093681610923565b811461094157600080fd5b50565b6000813590506109538161092d565b92915050565b60006020828403121561096f5761096e610919565b5b600061097d84828501610944565b91505092915050565b60008115159050919050565b61099b81610986565b82525050565b60006020820190506109b66000830184610992565b92915050565b600073ffffffffffffffffffffffffffffffffffffffff82169050919050565b60006109e7826109bc565b9050919050565b6109f7816109dc565b8114610a0257600080fd5b50565b600081359050610a14816109ee565b92915050565b600060208284031215610a3057610a2f610919565b5b6000610a3e84828501610a05565b91505092915050565b600080fd5b600080fd5b6000601f19601f8301169050919050565b7f4e487b7100000000000000000000000000000000000000000000000000000000600052604160045260246000fd5b610a9a82610a51565b810181811067ffffffffffffffff82111715610ab957610ab8610a62565b5b80604052505050565b6000610acc61090f565b9050610ad88282610a91565b919050565b600067ffffffffffffffff821115610af857610af7610a62565b5b610b0182610a51565b9050602081019050919050565b82818337600083830152505050565b6000610b30610b2b84610add565b610ac2565b905082815260208101848484011115610b4c57610b4b610a4c565b5b610b57848285610b0e565b509392505050565b600082601f830112610b7457610b73610a47565b5b8135610b84848260208601610b1d565b91505092915050565b60008060008060808587031215610ba757610ba6610919565b5b6000610bb587828801610a05565b945050602085013567ffffffffffffffff811115610bd657610bd561091e565b5b610be287828801610b5f565b935050604085013567ffffffffffffffff811115610c0357610c0261091e565b5b610c0f87828801610b5f565b925050606085013567ffffffffffffffff811115610c3057610c2f61091e565b5b610c3c87828801610b5f565b91505092959194509250565b60038110610c5557600080fd5b50565b600081359050610c6781610c48565b92915050565b60008060408385031215610c8457610c83610919565b5b6000610c9285828601610c58565b9250506020610ca385828601610944565b9150509250929050565b7f4e487b7100000000000000000000000000000000000000000000000000000000600052603260045260246000fd5b7f4e487b7100000000000000000000000000000000000000000000000000000000600052601160045260246000fd5b6000610d1682610923565b91507fffffffffffffffffffffffffffffffffffffffffffffffffffffffffffffffff821415610d4957610d48610cdc565b5b600182019050919050565b610d5d816109dc565b82525050565b6000602082019050610d786000830184610d54565b92915050565b600081519050610d8d8161092d565b92915050565b600060208284031215610da957610da8610919565b5b6000610db784828501610d7e565b91505092915050565b600082825260208201905092915050565b7f416c726561647920436f6d706c65746564000000000000000000000000000000600082015250565b6000610e07601183610dc0565b9150610e1282610dd1565b602082019050919050565b60006020820190508181036000830152610e3681610dfa565b9050919050565b7f646f6e277420686176652070726f706f73616c20726967687473000000000000600082015250565b6000610e73601a83610dc0565b9150610e7e82610e3d565b602082019050919050565b60006020820190508181036000830152610ea281610e66565b9050919050565b6000610eb482610923565b9150610ebf83610923565b9250827fffffffffffffffffffffffffffffffffffffffffffffffffffffffffffffffff03821115610ef457610ef3610cdc565b5b828201905092915050565b7f43616e277420566f746500000000000000000000000000000000000000000000600082015250565b6000610f35600a83610dc0565b9150610f4082610eff565b602082019050919050565b60006020820190508181036000830152610f6481610f28565b9050919050565b7f50726f706f73616c20697320636f6d706c657465640000000000000000000000600082015250565b6000610fa1601583610dc0565b9150610fac82610f6b565b602082019050919050565b60006020820190508181036000830152610fd081610f94565b9050919050565b7f596f7520616c726561647920766f746564000000000000000000000000000000600082015250565b600061100d601183610dc0565b915061101882610fd7565b602082019050919050565b6000602082019050818103600083015261103c81611000565b9050919050565b7f4e487b7100000000000000000000000000000000000000000000000000000000600052602160045260246000fd5b7f4e487b7100000000000000000000000000000000000000000000000000000000600052602260045260246000fd5b600060028204905060018216806110b957607f821691505b602082108114156110cd576110cc611072565b5b5091905056fea2646970667358221220a5f6d0d565010c50333909b71da58ee2d0501f11031cd37e57756393799b728c64736f6c63430008090033",
  "linkReferences": {},
  "deployedLinkReferences": {}
}